{
  "_format": "hh-sol-artifact-1",
  "contractName": "TicketNFT",
  "sourceName": "contracts/TicketNFT.sol",
  "abi": [
    {
      "inputs": [
        {
          "internalType": "address",
          "name": "initialOwner",
          "type": "address"
        }
      ],
      "stateMutability": "nonpayable",
      "type": "constructor"
    },
    {
      "inputs": [
        {
          "internalType": "address",
          "name": "sender",
          "type": "address"
        },
        {
          "internalType": "uint256",
          "name": "tokenId",
          "type": "uint256"
        },
        {
          "internalType": "address",
          "name": "owner",
          "type": "address"
        }
      ],
      "name": "ERC721IncorrectOwner",
      "type": "error"
    },
    {
      "inputs": [
        {
          "internalType": "address",
          "name": "operator",
          "type": "address"
        },
        {
          "internalType": "uint256",
          "name": "tokenId",
          "type": "uint256"
        }
      ],
      "name": "ERC721InsufficientApproval",
      "type": "error"
    },
    {
      "inputs": [
        {
          "internalType": "address",
          "name": "approver",
          "type": "address"
        }
      ],
      "name": "ERC721InvalidApprover",
      "type": "error"
    },
    {
      "inputs": [
        {
          "internalType": "address",
          "name": "operator",
          "type": "address"
        }
      ],
      "name": "ERC721InvalidOperator",
      "type": "error"
    },
    {
      "inputs": [
        {
          "internalType": "address",
          "name": "owner",
          "type": "address"
        }
      ],
      "name": "ERC721InvalidOwner",
      "type": "error"
    },
    {
      "inputs": [
        {
          "internalType": "address",
          "name": "receiver",
          "type": "address"
        }
      ],
      "name": "ERC721InvalidReceiver",
      "type": "error"
    },
    {
      "inputs": [
        {
          "internalType": "address",
          "name": "sender",
          "type": "address"
        }
      ],
      "name": "ERC721InvalidSender",
      "type": "error"
    },
    {
      "inputs": [
        {
          "internalType": "uint256",
          "name": "tokenId",
          "type": "uint256"
        }
      ],
      "name": "ERC721NonexistentToken",
      "type": "error"
    },
    {
      "inputs": [
        {
          "internalType": "address",
          "name": "owner",
          "type": "address"
        }
      ],
      "name": "OwnableInvalidOwner",
      "type": "error"
    },
    {
      "inputs": [
        {
          "internalType": "address",
          "name": "account",
          "type": "address"
        }
      ],
      "name": "OwnableUnauthorizedAccount",
      "type": "error"
    },
    {
      "anonymous": false,
      "inputs": [
        {
          "indexed": true,
          "internalType": "address",
          "name": "owner",
          "type": "address"
        },
        {
          "indexed": true,
          "internalType": "address",
          "name": "approved",
          "type": "address"
        },
        {
          "indexed": true,
          "internalType": "uint256",
          "name": "tokenId",
          "type": "uint256"
        }
      ],
      "name": "Approval",
      "type": "event"
    },
    {
      "anonymous": false,
      "inputs": [
        {
          "indexed": true,
          "internalType": "address",
          "name": "owner",
          "type": "address"
        },
        {
          "indexed": true,
          "internalType": "address",
          "name": "operator",
          "type": "address"
        },
        {
          "indexed": false,
          "internalType": "bool",
          "name": "approved",
          "type": "bool"
        }
      ],
      "name": "ApprovalForAll",
      "type": "event"
    },
    {
      "anonymous": false,
      "inputs": [
        {
          "indexed": false,
          "internalType": "uint256",
          "name": "_fromTokenId",
          "type": "uint256"
        },
        {
          "indexed": false,
          "internalType": "uint256",
          "name": "_toTokenId",
          "type": "uint256"
        }
      ],
      "name": "BatchMetadataUpdate",
      "type": "event"
    },
    {
      "anonymous": false,
      "inputs": [
        {
          "indexed": false,
          "internalType": "uint256",
          "name": "_tokenId",
          "type": "uint256"
        }
      ],
      "name": "MetadataUpdate",
      "type": "event"
    },
    {
      "anonymous": false,
      "inputs": [
        {
          "indexed": true,
          "internalType": "address",
          "name": "previousOwner",
          "type": "address"
        },
        {
          "indexed": true,
          "internalType": "address",
          "name": "newOwner",
          "type": "address"
        }
      ],
      "name": "OwnershipTransferred",
      "type": "event"
    },
    {
      "anonymous": false,
      "inputs": [
        {
          "indexed": true,
          "internalType": "address",
          "name": "from",
          "type": "address"
        },
        {
          "indexed": true,
          "internalType": "address",
          "name": "to",
          "type": "address"
        },
        {
          "indexed": true,
          "internalType": "uint256",
          "name": "tokenId",
          "type": "uint256"
        }
      ],
      "name": "Transfer",
      "type": "event"
    },
    {
      "inputs": [
        {
          "internalType": "address",
          "name": "to",
          "type": "address"
        },
        {
          "internalType": "uint256",
          "name": "tokenId",
          "type": "uint256"
        }
      ],
      "name": "approve",
      "outputs": [],
      "stateMutability": "nonpayable",
      "type": "function"
    },
    {
      "inputs": [
        {
          "internalType": "address",
          "name": "owner",
          "type": "address"
        }
      ],
      "name": "balanceOf",
      "outputs": [
        {
          "internalType": "uint256",
          "name": "",
          "type": "uint256"
        }
      ],
      "stateMutability": "view",
      "type": "function"
    },
    {
      "inputs": [
        {
          "internalType": "uint256",
          "name": "tokenId",
          "type": "uint256"
        }
      ],
      "name": "getApproved",
      "outputs": [
        {
          "internalType": "address",
          "name": "",
          "type": "address"
        }
      ],
      "stateMutability": "view",
      "type": "function"
    },
    {
      "inputs": [
        {
          "internalType": "address",
          "name": "owner",
          "type": "address"
        },
        {
          "internalType": "address",
          "name": "operator",
          "type": "address"
        }
      ],
      "name": "isApprovedForAll",
      "outputs": [
        {
          "internalType": "bool",
          "name": "",
          "type": "bool"
        }
      ],
      "stateMutability": "view",
      "type": "function"
    },
    {
      "inputs": [
        {
          "internalType": "address",
          "name": "to",
          "type": "address"
        },
        {
          "internalType": "string",
          "name": "_eventName",
          "type": "string"
        },
        {
          "internalType": "string",
          "name": "_date",
          "type": "string"
        },
        {
          "internalType": "string",
          "name": "_location",
          "type": "string"
        },
        {
          "internalType": "string",
          "name": "_seat",
          "type": "string"
        },
        {
          "internalType": "uint256",
          "name": "_price",
          "type": "uint256"
        },
        {
          "internalType": "string",
          "name": "_tokenURI",
          "type": "string"
        }
      ],
      "name": "mintTicket",
      "outputs": [
        {
          "internalType": "uint256",
          "name": "",
          "type": "uint256"
        }
      ],
      "stateMutability": "nonpayable",
      "type": "function"
    },
    {
      "inputs": [],
      "name": "name",
      "outputs": [
        {
          "internalType": "string",
          "name": "",
          "type": "string"
        }
      ],
      "stateMutability": "view",
      "type": "function"
    },
    {
      "inputs": [],
      "name": "nextTokenId",
      "outputs": [
        {
          "internalType": "uint256",
          "name": "",
          "type": "uint256"
        }
      ],
      "stateMutability": "view",
      "type": "function"
    },
    {
      "inputs": [],
      "name": "owner",
      "outputs": [
        {
          "internalType": "address",
          "name": "",
          "type": "address"
        }
      ],
      "stateMutability": "view",
      "type": "function"
    },
    {
      "inputs": [
        {
          "internalType": "uint256",
          "name": "tokenId",
          "type": "uint256"
        }
      ],
      "name": "ownerOf",
      "outputs": [
        {
          "internalType": "address",
          "name": "",
          "type": "address"
        }
      ],
      "stateMutability": "view",
      "type": "function"
    },
    {
      "inputs": [],
      "name": "renounceOwnership",
      "outputs": [],
      "stateMutability": "nonpayable",
      "type": "function"
    },
    {
      "inputs": [
        {
          "internalType": "address",
          "name": "from",
          "type": "address"
        },
        {
          "internalType": "address",
          "name": "to",
          "type": "address"
        },
        {
          "internalType": "uint256",
          "name": "tokenId",
          "type": "uint256"
        }
      ],
      "name": "safeTransferFrom",
      "outputs": [],
      "stateMutability": "nonpayable",
      "type": "function"
    },
    {
      "inputs": [
        {
          "internalType": "address",
          "name": "from",
          "type": "address"
        },
        {
          "internalType": "address",
          "name": "to",
          "type": "address"
        },
        {
          "internalType": "uint256",
          "name": "tokenId",
          "type": "uint256"
        },
        {
          "internalType": "bytes",
          "name": "data",
          "type": "bytes"
        }
      ],
      "name": "safeTransferFrom",
      "outputs": [],
      "stateMutability": "nonpayable",
      "type": "function"
    },
    {
      "inputs": [
        {
          "internalType": "address",
          "name": "operator",
          "type": "address"
        },
        {
          "internalType": "bool",
          "name": "approved",
          "type": "bool"
        }
      ],
      "name": "setApprovalForAll",
      "outputs": [],
      "stateMutability": "nonpayable",
      "type": "function"
    },
    {
      "inputs": [
        {
          "internalType": "bytes4",
          "name": "interfaceId",
          "type": "bytes4"
        }
      ],
      "name": "supportsInterface",
      "outputs": [
        {
          "internalType": "bool",
          "name": "",
          "type": "bool"
        }
      ],
      "stateMutability": "view",
      "type": "function"
    },
    {
      "inputs": [],
      "name": "symbol",
      "outputs": [
        {
          "internalType": "string",
          "name": "",
          "type": "string"
        }
      ],
      "stateMutability": "view",
      "type": "function"
    },
    {
      "inputs": [
        {
          "internalType": "uint256",
          "name": "",
          "type": "uint256"
        }
      ],
      "name": "ticketMetadata",
      "outputs": [
        {
          "internalType": "string",
          "name": "eventName",
          "type": "string"
        },
        {
          "internalType": "string",
          "name": "date",
          "type": "string"
        },
        {
          "internalType": "string",
          "name": "location",
          "type": "string"
        },
        {
          "internalType": "string",
          "name": "seat",
          "type": "string"
        },
        {
          "internalType": "uint256",
          "name": "price",
          "type": "uint256"
        }
      ],
      "stateMutability": "view",
      "type": "function"
    },
    {
      "inputs": [
        {
          "internalType": "uint256",
          "name": "tokenId",
          "type": "uint256"
        }
      ],
      "name": "tokenURI",
      "outputs": [
        {
          "internalType": "string",
          "name": "",
          "type": "string"
        }
      ],
      "stateMutability": "view",
      "type": "function"
    },
    {
      "inputs": [
        {
          "internalType": "address",
          "name": "from",
          "type": "address"
        },
        {
          "internalType": "address",
          "name": "to",
          "type": "address"
        },
        {
          "internalType": "uint256",
          "name": "tokenId",
          "type": "uint256"
        }
      ],
      "name": "transferFrom",
      "outputs": [],
      "stateMutability": "nonpayable",
      "type": "function"
    },
    {
      "inputs": [
        {
          "internalType": "address",
          "name": "newOwner",
          "type": "address"
        }
      ],
      "name": "transferOwnership",
      "outputs": [],
      "stateMutability": "nonpayable",
      "type": "function"
    }
  ],
  "bytecode": "0x60806040523480156200001157600080fd5b506040516200318538038062003185833981810160405281019062000037919062000288565b806040518060400160405280600e81526020017f4163636573736c795469636b65740000000000000000000000000000000000008152506040518060400160405280600381526020017f41435400000000000000000000000000000000000000000000000000000000008152508160009081620000b5919062000534565b508060019081620000c7919062000534565b505050600073ffffffffffffffffffffffffffffffffffffffff168173ffffffffffffffffffffffffffffffffffffffff16036200013f5760006040517f1e4fbdf70000000000000000000000000000000000000000000000000000000081526004016200013691906200062c565b60405180910390fd5b62000150816200015860201b60201c565b505062000649565b6000600760009054906101000a900473ffffffffffffffffffffffffffffffffffffffff16905081600760006101000a81548173ffffffffffffffffffffffffffffffffffffffff021916908373ffffffffffffffffffffffffffffffffffffffff1602179055508173ffffffffffffffffffffffffffffffffffffffff168173ffffffffffffffffffffffffffffffffffffffff167f8be0079c531659141344cd1fd0a4f28419497f9722a3daafe3b4186f6b6457e060405160405180910390a35050565b600080fd5b600073ffffffffffffffffffffffffffffffffffffffff82169050919050565b6000620002508262000223565b9050919050565b620002628162000243565b81146200026e57600080fd5b50565b600081519050620002828162000257565b92915050565b600060208284031215620002a157620002a06200021e565b5b6000620002b18482850162000271565b91505092915050565b600081519050919050565b7f4e487b7100000000000000000000000000000000000000000000000000000000600052604160045260246000fd5b7f4e487b7100000000000000000000000000000000000000000000000000000000600052602260045260246000fd5b600060028204905060018216806200033c57607f821691505b602082108103620003525762000351620002f4565b5b50919050565b60008190508160005260206000209050919050565b60006020601f8301049050919050565b600082821b905092915050565b600060088302620003bc7fffffffffffffffffffffffffffffffffffffffffffffffffffffffffffffffff826200037d565b620003c886836200037d565b95508019841693508086168417925050509392505050565b6000819050919050565b6000819050919050565b6000620004156200040f6200040984620003e0565b620003ea565b620003e0565b9050919050565b6000819050919050565b6200043183620003f4565b6200044962000440826200041c565b8484546200038a565b825550505050565b600090565b6200046062000451565b6200046d81848462000426565b505050565b5b8181101562000495576200048960008262000456565b60018101905062000473565b5050565b601f821115620004e457620004ae8162000358565b620004b9846200036d565b81016020851015620004c9578190505b620004e1620004d8856200036d565b83018262000472565b50505b505050565b600082821c905092915050565b60006200050960001984600802620004e9565b1980831691505092915050565b6000620005248383620004f6565b9150826002028217905092915050565b6200053f82620002ba565b67ffffffffffffffff8111156200055b576200055a620002c5565b5b62000567825462000323565b6200057482828562000499565b600060209050601f831160018114620005ac576000841562000597578287015190505b620005a3858262000516565b86555062000613565b601f198416620005bc8662000358565b60005b82811015620005e657848901518255600182019150602085019450602081019050620005bf565b8683101562000606578489015162000602601f891682620004f6565b8355505b6001600288020188555050505b505050505050565b620006268162000243565b82525050565b60006020820190506200064360008301846200061b565b92915050565b612b2c80620006596000396000f3fe608060405234801561001057600080fd5b50600436106101215760003560e01c8063715018a6116100ad578063b88d4fde11610071578063b88d4fde14610308578063c87b56dd14610324578063e985e9c514610354578063ea05fc5114610384578063f2fde38b146103b857610121565b8063715018a61461028857806375794a3c146102925780638da5cb5b146102b057806395d89b41146102ce578063a22cb465146102ec57610121565b806323b872dd116100f457806323b872dd146101c05780633dd8c3f3146101dc57806342842e0e1461020c5780636352211e1461022857806370a082311461025857610121565b806301ffc9a71461012657806306fdde0314610156578063081812fc14610174578063095ea7b3146101a4575b600080fd5b610140600480360381019061013b9190611e43565b6103d4565b60405161014d9190611e8b565b60405180910390f35b61015e610435565b60405161016b9190611f36565b60405180910390f35b61018e60048036038101906101899190611f8e565b6104c7565b60405161019b9190611ffc565b60405180910390f35b6101be60048036038101906101b99190612043565b6104e3565b005b6101da60048036038101906101d59190612083565b6104f9565b005b6101f660048036038101906101f1919061220b565b6105fb565b6040516102039190612348565b60405180910390f35b61022660048036038101906102219190612083565b6106e6565b005b610242600480360381019061023d9190611f8e565b610706565b60405161024f9190611ffc565b60405180910390f35b610272600480360381019061026d9190612363565b610718565b60405161027f9190612348565b60405180910390f35b6102906107d2565b005b61029a6107e6565b6040516102a79190612348565b60405180910390f35b6102b86107ec565b6040516102c59190611ffc565b60405180910390f35b6102d6610816565b6040516102e39190611f36565b60405180910390f35b610306600480360381019061030191906123bc565b6108a8565b005b610322600480360381019061031d919061249d565b6108be565b005b61033e60048036038101906103399190611f8e565b6108e3565b60405161034b9190611f36565b60405180910390f35b61036e60048036038101906103699190612520565b6109f6565b60405161037b9190611e8b565b60405180910390f35b61039e60048036038101906103999190611f8e565b610a8a565b6040516103af959493929190612560565b60405180910390f35b6103d260048036038101906103cd9190612363565b610ce0565b005b6000634906490660e01b7bffffffffffffffffffffffffffffffffffffffffffffffffffffffff1916827bffffffffffffffffffffffffffffffffffffffffffffffffffffffff1916148061042e575061042d82610d66565b5b9050919050565b606060008054610444906125fe565b80601f0160208091040260200160405190810160405280929190818152602001828054610470906125fe565b80156104bd5780601f10610492576101008083540402835291602001916104bd565b820191906000526020600020905b8154815290600101906020018083116104a057829003601f168201915b5050505050905090565b60006104d282610e48565b506104dc82610ed0565b9050919050565b6104f582826104f0610f0d565b610f15565b5050565b600073ffffffffffffffffffffffffffffffffffffffff168273ffffffffffffffffffffffffffffffffffffffff160361056b5760006040517f64a0ae920000000000000000000000000000000000000000000000000000000081526004016105629190611ffc565b60405180910390fd5b600061057f838361057a610f0d565b610f27565b90508373ffffffffffffffffffffffffffffffffffffffff168173ffffffffffffffffffffffffffffffffffffffff16146105f5578382826040517f64283d7b0000000000000000000000000000000000000000000000000000000081526004016105ec9392919061262f565b60405180910390fd5b50505050565b6000610605611141565b6000600854905061061689826111c8565b61062081846111e6565b6040518060a001604052808981526020018881526020018781526020018681526020018581525060096000838152602001908152602001600020600082015181600001908161066f9190612812565b5060208201518160010190816106859190612812565b50604082015181600201908161069b9190612812565b5060608201518160030190816106b19190612812565b5060808201518160040155905050600860008154809291906106d290612913565b919050555080915050979650505050505050565b610701838383604051806020016040528060008152506108be565b505050565b600061071182610e48565b9050919050565b60008073ffffffffffffffffffffffffffffffffffffffff168273ffffffffffffffffffffffffffffffffffffffff160361078b5760006040517f89c62b640000000000000000000000000000000000000000000000000000000081526004016107829190611ffc565b60405180910390fd5b600360008373ffffffffffffffffffffffffffffffffffffffff1673ffffffffffffffffffffffffffffffffffffffff168152602001908152602001600020549050919050565b6107da611141565b6107e46000611242565b565b60085481565b6000600760009054906101000a900473ffffffffffffffffffffffffffffffffffffffff16905090565b606060018054610825906125fe565b80601f0160208091040260200160405190810160405280929190818152602001828054610851906125fe565b801561089e5780601f106108735761010080835404028352916020019161089e565b820191906000526020600020905b81548152906001019060200180831161088157829003601f168201915b5050505050905090565b6108ba6108b3610f0d565b8383611308565b5050565b6108c98484846104f9565b6108dd6108d4610f0d565b85858585611477565b50505050565b60606108ee82610e48565b50600060066000848152602001908152602001600020805461090f906125fe565b80601f016020809104026020016040519081016040528092919081815260200182805461093b906125fe565b80156109885780601f1061095d57610100808354040283529160200191610988565b820191906000526020600020905b81548152906001019060200180831161096b57829003601f168201915b505050505090506000610999611628565b905060008151036109ae5781925050506109f1565b6000825111156109e35780826040516020016109cb929190612997565b604051602081830303815290604052925050506109f1565b6109ec8461163f565b925050505b919050565b6000600560008473ffffffffffffffffffffffffffffffffffffffff1673ffffffffffffffffffffffffffffffffffffffff16815260200190815260200160002060008373ffffffffffffffffffffffffffffffffffffffff1673ffffffffffffffffffffffffffffffffffffffff16815260200190815260200160002060009054906101000a900460ff16905092915050565b6009602052806000526040600020600091509050806000018054610aad906125fe565b80601f0160208091040260200160405190810160405280929190818152602001828054610ad9906125fe565b8015610b265780601f10610afb57610100808354040283529160200191610b26565b820191906000526020600020905b815481529060010190602001808311610b0957829003601f168201915b505050505090806001018054610b3b906125fe565b80601f0160208091040260200160405190810160405280929190818152602001828054610b67906125fe565b8015610bb45780601f10610b8957610100808354040283529160200191610bb4565b820191906000526020600020905b815481529060010190602001808311610b9757829003601f168201915b505050505090806002018054610bc9906125fe565b80601f0160208091040260200160405190810160405280929190818152602001828054610bf5906125fe565b8015610c425780601f10610c1757610100808354040283529160200191610c42565b820191906000526020600020905b815481529060010190602001808311610c2557829003601f168201915b505050505090806003018054610c57906125fe565b80601f0160208091040260200160405190810160405280929190818152602001828054610c83906125fe565b8015610cd05780601f10610ca557610100808354040283529160200191610cd0565b820191906000526020600020905b815481529060010190602001808311610cb357829003601f168201915b5050505050908060040154905085565b610ce8611141565b600073ffffffffffffffffffffffffffffffffffffffff168173ffffffffffffffffffffffffffffffffffffffff1603610d5a5760006040517f1e4fbdf7000000000000000000000000000000000000000000000000000000008152600401610d519190611ffc565b60405180910390fd5b610d6381611242565b50565b60007f80ac58cd000000000000000000000000000000000000000000000000000000007bffffffffffffffffffffffffffffffffffffffffffffffffffffffff1916827bffffffffffffffffffffffffffffffffffffffffffffffffffffffff19161480610e3157507f5b5e139f000000000000000000000000000000000000000000000000000000007bffffffffffffffffffffffffffffffffffffffffffffffffffffffff1916827bffffffffffffffffffffffffffffffffffffffffffffffffffffffff1916145b80610e415750610e40826116a8565b5b9050919050565b600080610e5483611712565b9050600073ffffffffffffffffffffffffffffffffffffffff168173ffffffffffffffffffffffffffffffffffffffff1603610ec757826040517f7e273289000000000000000000000000000000000000000000000000000000008152600401610ebe9190612348565b60405180910390fd5b80915050919050565b60006004600083815260200190815260200160002060009054906101000a900473ffffffffffffffffffffffffffffffffffffffff169050919050565b600033905090565b610f22838383600161174f565b505050565b600080610f3384611712565b9050600073ffffffffffffffffffffffffffffffffffffffff168373ffffffffffffffffffffffffffffffffffffffff1614610f7557610f74818486611914565b5b600073ffffffffffffffffffffffffffffffffffffffff168173ffffffffffffffffffffffffffffffffffffffff161461100657610fb760008560008061174f565b6001600360008373ffffffffffffffffffffffffffffffffffffffff1673ffffffffffffffffffffffffffffffffffffffff168152602001908152602001600020600082825403925050819055505b600073ffffffffffffffffffffffffffffffffffffffff168573ffffffffffffffffffffffffffffffffffffffff1614611089576001600360008773ffffffffffffffffffffffffffffffffffffffff1673ffffffffffffffffffffffffffffffffffffffff168152602001908152602001600020600082825401925050819055505b846002600086815260200190815260200160002060006101000a81548173ffffffffffffffffffffffffffffffffffffffff021916908373ffffffffffffffffffffffffffffffffffffffff160217905550838573ffffffffffffffffffffffffffffffffffffffff168273ffffffffffffffffffffffffffffffffffffffff167fddf252ad1be2c89b69c2b068fc378daa952ba7f163c4a11628f55a4df523b3ef60405160405180910390a4809150509392505050565b611149610f0d565b73ffffffffffffffffffffffffffffffffffffffff166111676107ec565b73ffffffffffffffffffffffffffffffffffffffff16146111c65761118a610f0d565b6040517f118cdaa70000000000000000000000000000000000000000000000000000000081526004016111bd9190611ffc565b60405180910390fd5b565b6111e28282604051806020016040528060008152506119d8565b5050565b806006600084815260200190815260200160002090816112069190612812565b507ff8e1a15aba9398e019f0b49df1a4fde98ee17ae345cb5f6b5e2c27f5033e8ce7826040516112369190612348565b60405180910390a15050565b6000600760009054906101000a900473ffffffffffffffffffffffffffffffffffffffff16905081600760006101000a81548173ffffffffffffffffffffffffffffffffffffffff021916908373ffffffffffffffffffffffffffffffffffffffff1602179055508173ffffffffffffffffffffffffffffffffffffffff168173ffffffffffffffffffffffffffffffffffffffff167f8be0079c531659141344cd1fd0a4f28419497f9722a3daafe3b4186f6b6457e060405160405180910390a35050565b600073ffffffffffffffffffffffffffffffffffffffff168273ffffffffffffffffffffffffffffffffffffffff160361137957816040517f5b08ba180000000000000000000000000000000000000000000000000000000081526004016113709190611ffc565b60405180910390fd5b80600560008573ffffffffffffffffffffffffffffffffffffffff1673ffffffffffffffffffffffffffffffffffffffff16815260200190815260200160002060008473ffffffffffffffffffffffffffffffffffffffff1673ffffffffffffffffffffffffffffffffffffffff16815260200190815260200160002060006101000a81548160ff0219169083151502179055508173ffffffffffffffffffffffffffffffffffffffff168373ffffffffffffffffffffffffffffffffffffffff167f17307eab39ab6107e8899845ad3d59bd9653f200f220920489ca2b5937696c318360405161146a9190611e8b565b60405180910390a3505050565b60008373ffffffffffffffffffffffffffffffffffffffff163b1115611621578273ffffffffffffffffffffffffffffffffffffffff1663150b7a02868685856040518563ffffffff1660e01b81526004016114d69493929190612a10565b6020604051808303816000875af192505050801561151257506040513d601f19601f8201168201806040525081019061150f9190612a71565b60015b611596573d8060008114611542576040519150601f19603f3d011682016040523d82523d6000602084013e611547565b606091505b50600081510361158e57836040517f64a0ae920000000000000000000000000000000000000000000000000000000081526004016115859190611ffc565b60405180910390fd5b805181602001fd5b63150b7a0260e01b7bffffffffffffffffffffffffffffffffffffffffffffffffffffffff1916817bffffffffffffffffffffffffffffffffffffffffffffffffffffffff19161461161f57836040517f64a0ae920000000000000000000000000000000000000000000000000000000081526004016116169190611ffc565b60405180910390fd5b505b5050505050565b606060405180602001604052806000815250905090565b606061164a82610e48565b506000611655611628565b9050600081511161167557604051806020016040528060008152506116a0565b8061167f846119fc565b604051602001611690929190612997565b6040516020818303038152906040525b915050919050565b60007f01ffc9a7000000000000000000000000000000000000000000000000000000007bffffffffffffffffffffffffffffffffffffffffffffffffffffffff1916827bffffffffffffffffffffffffffffffffffffffffffffffffffffffff1916149050919050565b60006002600083815260200190815260200160002060009054906101000a900473ffffffffffffffffffffffffffffffffffffffff169050919050565b80806117885750600073ffffffffffffffffffffffffffffffffffffffff168273ffffffffffffffffffffffffffffffffffffffff1614155b156118bc57600061179884610e48565b9050600073ffffffffffffffffffffffffffffffffffffffff168373ffffffffffffffffffffffffffffffffffffffff161415801561180357508273ffffffffffffffffffffffffffffffffffffffff168173ffffffffffffffffffffffffffffffffffffffff1614155b8015611816575061181481846109f6565b155b1561185857826040517fa9fbf51f00000000000000000000000000000000000000000000000000000000815260040161184f9190611ffc565b60405180910390fd5b81156118ba57838573ffffffffffffffffffffffffffffffffffffffff168273ffffffffffffffffffffffffffffffffffffffff167f8c5be1e5ebec7d5bd14f71427d1e84f3dd0314c0f7b2291e5b200ac8c7c3b92560405160405180910390a45b505b836004600085815260200190815260200160002060006101000a81548173ffffffffffffffffffffffffffffffffffffffff021916908373ffffffffffffffffffffffffffffffffffffffff16021790555050505050565b61191f838383611aca565b6119d357600073ffffffffffffffffffffffffffffffffffffffff168373ffffffffffffffffffffffffffffffffffffffff160361199457806040517f7e27328900000000000000000000000000000000000000000000000000000000815260040161198b9190612348565b60405180910390fd5b81816040517f177e802f0000000000000000000000000000000000000000000000000000000081526004016119ca929190612a9e565b60405180910390fd5b505050565b6119e28383611b8b565b6119f76119ed610f0d565b6000858585611477565b505050565b606060006001611a0b84611c84565b01905060008167ffffffffffffffff811115611a2a57611a296120e0565b5b6040519080825280601f01601f191660200182016040528015611a5c5781602001600182028036833780820191505090505b509050600082602001820190505b600115611abf578080600190039150507f3031323334353637383961626364656600000000000000000000000000000000600a86061a8153600a8581611ab357611ab2612ac7565b5b04945060008503611a6a575b819350505050919050565b60008073ffffffffffffffffffffffffffffffffffffffff168373ffffffffffffffffffffffffffffffffffffffff1614158015611b8257508273ffffffffffffffffffffffffffffffffffffffff168473ffffffffffffffffffffffffffffffffffffffff161480611b435750611b4284846109f6565b5b80611b8157508273ffffffffffffffffffffffffffffffffffffffff16611b6983610ed0565b73ffffffffffffffffffffffffffffffffffffffff16145b5b90509392505050565b600073ffffffffffffffffffffffffffffffffffffffff168273ffffffffffffffffffffffffffffffffffffffff1603611bfd5760006040517f64a0ae92000000000000000000000000000000000000000000000000000000008152600401611bf49190611ffc565b60405180910390fd5b6000611c0b83836000610f27565b9050600073ffffffffffffffffffffffffffffffffffffffff168173ffffffffffffffffffffffffffffffffffffffff1614611c7f5760006040517f73c6ac6e000000000000000000000000000000000000000000000000000000008152600401611c769190611ffc565b60405180910390fd5b505050565b600080600090507a184f03e93ff9f4daa797ed6e38ed64bf6a1f0100000000000000008310611ce2577a184f03e93ff9f4daa797ed6e38ed64bf6a1f0100000000000000008381611cd857611cd7612ac7565b5b0492506040810190505b6d04ee2d6d415b85acef81000000008310611d1f576d04ee2d6d415b85acef81000000008381611d1557611d14612ac7565b5b0492506020810190505b662386f26fc100008310611d4e57662386f26fc100008381611d4457611d43612ac7565b5b0492506010810190505b6305f5e1008310611d77576305f5e1008381611d6d57611d6c612ac7565b5b0492506008810190505b6127108310611d9c576127108381611d9257611d91612ac7565b5b0492506004810190505b60648310611dbf5760648381611db557611db4612ac7565b5b0492506002810190505b600a8310611dce576001810190505b80915050919050565b6000604051905090565b600080fd5b600080fd5b60007fffffffff0000000000000000000000000000000000000000000000000000000082169050919050565b611e2081611deb565b8114611e2b57600080fd5b50565b600081359050611e3d81611e17565b92915050565b600060208284031215611e5957611e58611de1565b5b6000611e6784828501611e2e565b91505092915050565b60008115159050919050565b611e8581611e70565b82525050565b6000602082019050611ea06000830184611e7c565b92915050565b600081519050919050565b600082825260208201905092915050565b60005b83811015611ee0578082015181840152602081019050611ec5565b60008484015250505050565b6000601f19601f8301169050919050565b6000611f0882611ea6565b611f128185611eb1565b9350611f22818560208601611ec2565b611f2b81611eec565b840191505092915050565b60006020820190508181036000830152611f508184611efd565b905092915050565b6000819050919050565b611f6b81611f58565b8114611f7657600080fd5b50565b600081359050611f8881611f62565b92915050565b600060208284031215611fa457611fa3611de1565b5b6000611fb284828501611f79565b91505092915050565b600073ffffffffffffffffffffffffffffffffffffffff82169050919050565b6000611fe682611fbb565b9050919050565b611ff681611fdb565b82525050565b60006020820190506120116000830184611fed565b92915050565b61202081611fdb565b811461202b57600080fd5b50565b60008135905061203d81612017565b92915050565b6000806040838503121561205a57612059611de1565b5b60006120688582860161202e565b925050602061207985828601611f79565b9150509250929050565b60008060006060848603121561209c5761209b611de1565b5b60006120aa8682870161202e565b93505060206120bb8682870161202e565b92505060406120cc86828701611f79565b9150509250925092565b600080fd5b600080fd5b7f4e487b7100000000000000000000000000000000000000000000000000000000600052604160045260246000fd5b61211882611eec565b810181811067ffffffffffffffff82111715612137576121366120e0565b5b80604052505050565b600061214a611dd7565b9050612156828261210f565b919050565b600067ffffffffffffffff821115612176576121756120e0565b5b61217f82611eec565b9050602081019050919050565b82818337600083830152505050565b60006121ae6121a98461215b565b612140565b9050828152602081018484840111156121ca576121c96120db565b5b6121d584828561218c565b509392505050565b600082601f8301126121f2576121f16120d6565b5b813561220284826020860161219b565b91505092915050565b600080600080600080600060e0888a03121561222a57612229611de1565b5b60006122388a828b0161202e565b975050602088013567ffffffffffffffff81111561225957612258611de6565b5b6122658a828b016121dd565b965050604088013567ffffffffffffffff81111561228657612285611de6565b5b6122928a828b016121dd565b955050606088013567ffffffffffffffff8111156122b3576122b2611de6565b5b6122bf8a828b016121dd565b945050608088013567ffffffffffffffff8111156122e0576122df611de6565b5b6122ec8a828b016121dd565b93505060a06122fd8a828b01611f79565b92505060c088013567ffffffffffffffff81111561231e5761231d611de6565b5b61232a8a828b016121dd565b91505092959891949750929550565b61234281611f58565b82525050565b600060208201905061235d6000830184612339565b92915050565b60006020828403121561237957612378611de1565b5b60006123878482850161202e565b91505092915050565b61239981611e70565b81146123a457600080fd5b50565b6000813590506123b681612390565b92915050565b600080604083850312156123d3576123d2611de1565b5b60006123e18582860161202e565b92505060206123f2858286016123a7565b9150509250929050565b600067ffffffffffffffff821115612417576124166120e0565b5b61242082611eec565b9050602081019050919050565b600061244061243b846123fc565b612140565b90508281526020810184848401111561245c5761245b6120db565b5b61246784828561218c565b509392505050565b600082601f830112612484576124836120d6565b5b813561249484826020860161242d565b91505092915050565b600080600080608085870312156124b7576124b6611de1565b5b60006124c58782880161202e565b94505060206124d68782880161202e565b93505060406124e787828801611f79565b925050606085013567ffffffffffffffff81111561250857612507611de6565b5b6125148782880161246f565b91505092959194509250565b6000806040838503121561253757612536611de1565b5b60006125458582860161202e565b92505060206125568582860161202e565b9150509250929050565b600060a082019050818103600083015261257a8188611efd565b9050818103602083015261258e8187611efd565b905081810360408301526125a28186611efd565b905081810360608301526125b68185611efd565b90506125c56080830184612339565b9695505050505050565b7f4e487b7100000000000000000000000000000000000000000000000000000000600052602260045260246000fd5b6000600282049050600182168061261657607f821691505b602082108103612629576126286125cf565b5b50919050565b60006060820190506126446000830186611fed565b6126516020830185612339565b61265e6040830184611fed565b949350505050565b60008190508160005260206000209050919050565b60006020601f8301049050919050565b600082821b905092915050565b6000600883026126c87fffffffffffffffffffffffffffffffffffffffffffffffffffffffffffffffff8261268b565b6126d2868361268b565b95508019841693508086168417925050509392505050565b6000819050919050565b600061270f61270a61270584611f58565b6126ea565b611f58565b9050919050565b6000819050919050565b612729836126f4565b61273d61273582612716565b848454612698565b825550505050565b600090565b612752612745565b61275d818484612720565b505050565b5b818110156127815761277660008261274a565b600181019050612763565b5050565b601f8211156127c65761279781612666565b6127a08461267b565b810160208510156127af578190505b6127c36127bb8561267b565b830182612762565b50505b505050565b600082821c905092915050565b60006127e9600019846008026127cb565b1980831691505092915050565b600061280283836127d8565b9150826002028217905092915050565b61281b82611ea6565b67ffffffffffffffff811115612834576128336120e0565b5b61283e82546125fe565b612849828285612785565b600060209050601f83116001811461287c576000841561286a578287015190505b61287485826127f6565b8655506128dc565b601f19841661288a86612666565b60005b828110156128b25784890151825560018201915060208501945060208101905061288d565b868310156128cf57848901516128cb601f8916826127d8565b8355505b6001600288020188555050505b505050505050565b7f4e487b7100000000000000000000000000000000000000000000000000000000600052601160045260246000fd5b600061291e82611f58565b91507fffffffffffffffffffffffffffffffffffffffffffffffffffffffffffffffff82036129505761294f6128e4565b5b600182019050919050565b600081905092915050565b600061297182611ea6565b61297b818561295b565b935061298b818560208601611ec2565b80840191505092915050565b60006129a38285612966565b91506129af8284612966565b91508190509392505050565b600081519050919050565b600082825260208201905092915050565b60006129e2826129bb565b6129ec81856129c6565b93506129fc818560208601611ec2565b612a0581611eec565b840191505092915050565b6000608082019050612a256000830187611fed565b612a326020830186611fed565b612a3f6040830185612339565b8181036060830152612a5181846129d7565b905095945050505050565b600081519050612a6b81611e17565b92915050565b600060208284031215612a8757612a86611de1565b5b6000612a9584828501612a5c565b91505092915050565b6000604082019050612ab36000830185611fed565b612ac06020830184612339565b9392505050565b7f4e487b7100000000000000000000000000000000000000000000000000000000600052601260045260246000fdfea26469706673582212202dbf83e50a13ec592ca49863e311446e928f675dd31ec5d61bc69a8844b3230c64736f6c63430008140033",
  "linkReferences": {},
  "deployedLinkReferences": {}
}