{
  "_format": "hh-sol-artifact-1",
  "contractName": "TicketNFT",
  "sourceName": "contracts/TicketNFT.sol",
  "abi": [
    {
      "inputs": [
        {
          "internalType": "address",
          "name": "initialOwner",
          "type": "address"
        }
      ],
      "stateMutability": "nonpayable",
      "type": "constructor"
    },
    {
      "inputs": [
        {
          "internalType": "address",
          "name": "sender",
          "type": "address"
        },
        {
          "internalType": "uint256",
          "name": "tokenId",
          "type": "uint256"
        },
        {
          "internalType": "address",
          "name": "owner",
          "type": "address"
        }
      ],
      "name": "ERC721IncorrectOwner",
      "type": "error"
    },
    {
      "inputs": [
        {
          "internalType": "address",
          "name": "operator",
          "type": "address"
        },
        {
          "internalType": "uint256",
          "name": "tokenId",
          "type": "uint256"
        }
      ],
      "name": "ERC721InsufficientApproval",
      "type": "error"
    },
    {
      "inputs": [
        {
          "internalType": "address",
          "name": "approver",
          "type": "address"
        }
      ],
      "name": "ERC721InvalidApprover",
      "type": "error"
    },
    {
      "inputs": [
        {
          "internalType": "address",
          "name": "operator",
          "type": "address"
        }
      ],
      "name": "ERC721InvalidOperator",
      "type": "error"
    },
    {
      "inputs": [
        {
          "internalType": "address",
          "name": "owner",
          "type": "address"
        }
      ],
      "name": "ERC721InvalidOwner",
      "type": "error"
    },
    {
      "inputs": [
        {
          "internalType": "address",
          "name": "receiver",
          "type": "address"
        }
      ],
      "name": "ERC721InvalidReceiver",
      "type": "error"
    },
    {
      "inputs": [
        {
          "internalType": "address",
          "name": "sender",
          "type": "address"
        }
      ],
      "name": "ERC721InvalidSender",
      "type": "error"
    },
    {
      "inputs": [
        {
          "internalType": "uint256",
          "name": "tokenId",
          "type": "uint256"
        }
      ],
      "name": "ERC721NonexistentToken",
      "type": "error"
    },
    {
      "inputs": [
        {
          "internalType": "address",
          "name": "owner",
          "type": "address"
        }
      ],
      "name": "OwnableInvalidOwner",
      "type": "error"
    },
    {
      "inputs": [
        {
          "internalType": "address",
          "name": "account",
          "type": "address"
        }
      ],
      "name": "OwnableUnauthorizedAccount",
      "type": "error"
    },
    {
      "anonymous": false,
      "inputs": [
        {
          "indexed": true,
          "internalType": "address",
          "name": "owner",
          "type": "address"
        },
        {
          "indexed": true,
          "internalType": "address",
          "name": "approved",
          "type": "address"
        },
        {
          "indexed": true,
          "internalType": "uint256",
          "name": "tokenId",
          "type": "uint256"
        }
      ],
      "name": "Approval",
      "type": "event"
    },
    {
      "anonymous": false,
      "inputs": [
        {
          "indexed": true,
          "internalType": "address",
          "name": "owner",
          "type": "address"
        },
        {
          "indexed": true,
          "internalType": "address",
          "name": "operator",
          "type": "address"
        },
        {
          "indexed": false,
          "internalType": "bool",
          "name": "approved",
          "type": "bool"
        }
      ],
      "name": "ApprovalForAll",
      "type": "event"
    },
    {
      "anonymous": false,
      "inputs": [
        {
          "indexed": false,
          "internalType": "uint256",
          "name": "_fromTokenId",
          "type": "uint256"
        },
        {
          "indexed": false,
          "internalType": "uint256",
          "name": "_toTokenId",
          "type": "uint256"
        }
      ],
      "name": "BatchMetadataUpdate",
      "type": "event"
    },
    {
      "anonymous": false,
      "inputs": [
        {
          "indexed": false,
          "internalType": "uint256",
          "name": "_tokenId",
          "type": "uint256"
        }
      ],
      "name": "MetadataUpdate",
      "type": "event"
    },
    {
      "anonymous": false,
      "inputs": [
        {
          "indexed": true,
          "internalType": "address",
          "name": "previousOwner",
          "type": "address"
        },
        {
          "indexed": true,
          "internalType": "address",
          "name": "newOwner",
          "type": "address"
        }
      ],
      "name": "OwnershipTransferred",
      "type": "event"
    },
    {
      "anonymous": false,
      "inputs": [
        {
          "indexed": true,
          "internalType": "address",
          "name": "from",
          "type": "address"
        },
        {
          "indexed": true,
          "internalType": "address",
          "name": "to",
          "type": "address"
        },
        {
          "indexed": true,
          "internalType": "uint256",
          "name": "tokenId",
          "type": "uint256"
        }
      ],
      "name": "Transfer",
      "type": "event"
    },
    {
      "inputs": [
        {
          "internalType": "address",
          "name": "to",
          "type": "address"
        },
        {
          "internalType": "uint256",
          "name": "tokenId",
          "type": "uint256"
        }
      ],
      "name": "approve",
      "outputs": [],
      "stateMutability": "nonpayable",
      "type": "function"
    },
    {
      "inputs": [
        {
          "internalType": "address",
          "name": "owner",
          "type": "address"
        }
      ],
      "name": "balanceOf",
      "outputs": [
        {
          "internalType": "uint256",
          "name": "",
          "type": "uint256"
        }
      ],
      "stateMutability": "view",
      "type": "function"
    },
    {
      "inputs": [
        {
          "internalType": "uint256",
          "name": "tokenId",
          "type": "uint256"
        }
      ],
      "name": "getApproved",
      "outputs": [
        {
          "internalType": "address",
          "name": "",
          "type": "address"
        }
      ],
      "stateMutability": "view",
      "type": "function"
    },
    {
      "inputs": [
        {
          "internalType": "address",
          "name": "owner",
          "type": "address"
        },
        {
          "internalType": "address",
          "name": "operator",
          "type": "address"
        }
      ],
      "name": "isApprovedForAll",
      "outputs": [
        {
          "internalType": "bool",
          "name": "",
          "type": "bool"
        }
      ],
      "stateMutability": "view",
      "type": "function"
    },
    {
      "inputs": [
        {
          "internalType": "address",
          "name": "to",
          "type": "address"
        },
        {
          "internalType": "string",
          "name": "_eventName",
          "type": "string"
        },
        {
          "internalType": "string",
          "name": "_date",
          "type": "string"
        },
        {
          "internalType": "string",
          "name": "_location",
          "type": "string"
        },
        {
          "internalType": "string",
          "name": "_seat",
          "type": "string"
        },
        {
          "internalType": "uint256",
          "name": "_price",
          "type": "uint256"
        },
        {
          "internalType": "string",
          "name": "_tokenURI",
          "type": "string"
        }
      ],
      "name": "mintTicket",
      "outputs": [
        {
          "internalType": "uint256",
          "name": "",
          "type": "uint256"
        }
      ],
      "stateMutability": "nonpayable",
      "type": "function"
    },
    {
      "inputs": [],
      "name": "name",
      "outputs": [
        {
          "internalType": "string",
          "name": "",
          "type": "string"
        }
      ],
      "stateMutability": "view",
      "type": "function"
    },
    {
      "inputs": [],
      "name": "nextTokenId",
      "outputs": [
        {
          "internalType": "uint256",
          "name": "",
          "type": "uint256"
        }
      ],
      "stateMutability": "view",
      "type": "function"
    },
    {
      "inputs": [],
      "name": "owner",
      "outputs": [
        {
          "internalType": "address",
          "name": "",
          "type": "address"
        }
      ],
      "stateMutability": "view",
      "type": "function"
    },
    {
      "inputs": [
        {
          "internalType": "uint256",
          "name": "tokenId",
          "type": "uint256"
        }
      ],
      "name": "ownerOf",
      "outputs": [
        {
          "internalType": "address",
          "name": "",
          "type": "address"
        }
      ],
      "stateMutability": "view",
      "type": "function"
    },
    {
      "inputs": [],
      "name": "renounceOwnership",
      "outputs": [],
      "stateMutability": "nonpayable",
      "type": "function"
    },
    {
      "inputs": [
        {
          "internalType": "address",
          "name": "from",
          "type": "address"
        },
        {
          "internalType": "address",
          "name": "to",
          "type": "address"
        },
        {
          "internalType": "uint256",
          "name": "tokenId",
          "type": "uint256"
        }
      ],
      "name": "safeTransferFrom",
      "outputs": [],
      "stateMutability": "nonpayable",
      "type": "function"
    },
    {
      "inputs": [
        {
          "internalType": "address",
          "name": "from",
          "type": "address"
        },
        {
          "internalType": "address",
          "name": "to",
          "type": "address"
        },
        {
          "internalType": "uint256",
          "name": "tokenId",
          "type": "uint256"
        },
        {
          "internalType": "bytes",
          "name": "data",
          "type": "bytes"
        }
      ],
      "name": "safeTransferFrom",
      "outputs": [],
      "stateMutability": "nonpayable",
      "type": "function"
    },
    {
      "inputs": [
        {
          "internalType": "address",
          "name": "operator",
          "type": "address"
        },
        {
          "internalType": "bool",
          "name": "approved",
          "type": "bool"
        }
      ],
      "name": "setApprovalForAll",
      "outputs": [],
      "stateMutability": "nonpayable",
      "type": "function"
    },
    {
      "inputs": [
        {
          "internalType": "bytes4",
          "name": "interfaceId",
          "type": "bytes4"
        }
      ],
      "name": "supportsInterface",
      "outputs": [
        {
          "internalType": "bool",
          "name": "",
          "type": "bool"
        }
      ],
      "stateMutability": "view",
      "type": "function"
    },
    {
      "inputs": [],
      "name": "symbol",
      "outputs": [
        {
          "internalType": "string",
          "name": "",
          "type": "string"
        }
      ],
      "stateMutability": "view",
      "type": "function"
    },
    {
      "inputs": [
        {
          "internalType": "uint256",
          "name": "",
          "type": "uint256"
        }
      ],
      "name": "ticketMetadata",
      "outputs": [
        {
          "internalType": "string",
          "name": "eventName",
          "type": "string"
        },
        {
          "internalType": "string",
          "name": "date",
          "type": "string"
        },
        {
          "internalType": "string",
          "name": "location",
          "type": "string"
        },
        {
          "internalType": "string",
          "name": "seat",
          "type": "string"
        },
        {
          "internalType": "uint256",
          "name": "price",
          "type": "uint256"
        }
      ],
      "stateMutability": "view",
      "type": "function"
    },
    {
      "inputs": [
        {
          "internalType": "uint256",
          "name": "tokenId",
          "type": "uint256"
        }
      ],
      "name": "tokenURI",
      "outputs": [
        {
          "internalType": "string",
          "name": "",
          "type": "string"
        }
      ],
      "stateMutability": "view",
      "type": "function"
    },
    {
      "inputs": [
        {
          "internalType": "address",
          "name": "from",
          "type": "address"
        },
        {
          "internalType": "address",
          "name": "to",
          "type": "address"
        },
        {
          "internalType": "uint256",
          "name": "tokenId",
          "type": "uint256"
        }
      ],
      "name": "transferFrom",
      "outputs": [],
      "stateMutability": "nonpayable",
      "type": "function"
    },
    {
      "inputs": [
        {
          "internalType": "address",
          "name": "newOwner",
          "type": "address"
        }
      ],
      "name": "transferOwnership",
      "outputs": [],
      "stateMutability": "nonpayable",
      "type": "function"
    }
  ],
  "bytecode": "0x60806040523480156200001157600080fd5b506040516200317c3803806200317c833981810160405281019062000037919062000288565b806040518060400160405280600e81526020017f4163636573736c795469636b65740000000000000000000000000000000000008152506040518060400160405280600381526020017f41435400000000000000000000000000000000000000000000000000000000008152508160009081620000b5919062000534565b508060019081620000c7919062000534565b505050600073ffffffffffffffffffffffffffffffffffffffff168173ffffffffffffffffffffffffffffffffffffffff16036200013f5760006040517f1e4fbdf70000000000000000000000000000000000000000000000000000000081526004016200013691906200062c565b60405180910390fd5b62000150816200015860201b60201c565b505062000649565b6000600760009054906101000a900473ffffffffffffffffffffffffffffffffffffffff16905081600760006101000a81548173ffffffffffffffffffffffffffffffffffffffff021916908373ffffffffffffffffffffffffffffffffffffffff1602179055508173ffffffffffffffffffffffffffffffffffffffff168173ffffffffffffffffffffffffffffffffffffffff167f8be0079c531659141344cd1fd0a4f28419497f9722a3daafe3b4186f6b6457e060405160405180910390a35050565b600080fd5b600073ffffffffffffffffffffffffffffffffffffffff82169050919050565b6000620002508262000223565b9050919050565b620002628162000243565b81146200026e57600080fd5b50565b600081519050620002828162000257565b92915050565b600060208284031215620002a157620002a06200021e565b5b6000620002b18482850162000271565b91505092915050565b600081519050919050565b7f4e487b7100000000000000000000000000000000000000000000000000000000600052604160045260246000fd5b7f4e487b7100000000000000000000000000000000000000000000000000000000600052602260045260246000fd5b600060028204905060018216806200033c57607f821691505b602082108103620003525762000351620002f4565b5b50919050565b60008190508160005260206000209050919050565b60006020601f8301049050919050565b600082821b905092915050565b600060088302620003bc7fffffffffffffffffffffffffffffffffffffffffffffffffffffffffffffffff826200037d565b620003c886836200037d565b95508019841693508086168417925050509392505050565b6000819050919050565b6000819050919050565b6000620004156200040f6200040984620003e0565b620003ea565b620003e0565b9050919050565b6000819050919050565b6200043183620003f4565b6200044962000440826200041c565b8484546200038a565b825550505050565b600090565b6200046062000451565b6200046d81848462000426565b505050565b5b8181101562000495576200048960008262000456565b60018101905062000473565b5050565b601f821115620004e457620004ae8162000358565b620004b9846200036d565b81016020851015620004c9578190505b620004e1620004d8856200036d565b83018262000472565b50505b505050565b600082821c905092915050565b60006200050960001984600802620004e9565b1980831691505092915050565b6000620005248383620004f6565b9150826002028217905092915050565b6200053f82620002ba565b67ffffffffffffffff8111156200055b576200055a620002c5565b5b62000567825462000323565b6200057482828562000499565b600060209050601f831160018114620005ac576000841562000597578287015190505b620005a3858262000516565b86555062000613565b601f198416620005bc8662000358565b60005b82811015620005e657848901518255600182019150602085019450602081019050620005bf565b8683101562000606578489015162000602601f891682620004f6565b8355505b6001600288020188555050505b505050505050565b620006268162000243565b82525050565b60006020820190506200064360008301846200061b565b92915050565b612b2380620006596000396000f3fe608060405234801561001057600080fd5b50600436106101215760003560e01c8063715018a6116100ad578063b88d4fde11610071578063b88d4fde14610308578063c87b56dd14610324578063e985e9c514610354578063ea05fc5114610384578063f2fde38b146103b857610121565b8063715018a61461028857806375794a3c146102925780638da5cb5b146102b057806395d89b41146102ce578063a22cb465146102ec57610121565b806323b872dd116100f457806323b872dd146101c05780633dd8c3f3146101dc57806342842e0e1461020c5780636352211e1461022857806370a082311461025857610121565b806301ffc9a71461012657806306fdde0314610156578063081812fc14610174578063095ea7b3146101a4575b600080fd5b610140600480360381019061013b9190611e3a565b6103d4565b60405161014d9190611e82565b60405180910390f35b61015e610435565b60405161016b9190611f2d565b60405180910390f35b61018e60048036038101906101899190611f85565b6104c7565b60405161019b9190611ff3565b60405180910390f35b6101be60048036038101906101b9919061203a565b6104e3565b005b6101da60048036038101906101d5919061207a565b6104f9565b005b6101f660048036038101906101f19190612202565b6105fb565b604051610203919061233f565b60405180910390f35b6102266004803603810190610221919061207a565b6106dd565b005b610242600480360381019061023d9190611f85565b6106fd565b60405161024f9190611ff3565b60405180910390f35b610272600480360381019061026d919061235a565b61070f565b60405161027f919061233f565b60405180910390f35b6102906107c9565b005b61029a6107dd565b6040516102a7919061233f565b60405180910390f35b6102b86107e3565b6040516102c59190611ff3565b60405180910390f35b6102d661080d565b6040516102e39190611f2d565b60405180910390f35b610306600480360381019061030191906123b3565b61089f565b005b610322600480360381019061031d9190612494565b6108b5565b005b61033e60048036038101906103399190611f85565b6108da565b60405161034b9190611f2d565b60405180910390f35b61036e60048036038101906103699190612517565b6109ed565b60405161037b9190611e82565b60405180910390f35b61039e60048036038101906103999190611f85565b610a81565b6040516103af959493929190612557565b60405180910390f35b6103d260048036038101906103cd919061235a565b610cd7565b005b6000634906490660e01b7bffffffffffffffffffffffffffffffffffffffffffffffffffffffff1916827bffffffffffffffffffffffffffffffffffffffffffffffffffffffff1916148061042e575061042d82610d5d565b5b9050919050565b606060008054610444906125f5565b80601f0160208091040260200160405190810160405280929190818152602001828054610470906125f5565b80156104bd5780601f10610492576101008083540402835291602001916104bd565b820191906000526020600020905b8154815290600101906020018083116104a057829003601f168201915b5050505050905090565b60006104d282610e3f565b506104dc82610ec7565b9050919050565b6104f582826104f0610f04565b610f0c565b5050565b600073ffffffffffffffffffffffffffffffffffffffff168273ffffffffffffffffffffffffffffffffffffffff160361056b5760006040517f64a0ae920000000000000000000000000000000000000000000000000000000081526004016105629190611ff3565b60405180910390fd5b600061057f838361057a610f04565b610f1e565b90508373ffffffffffffffffffffffffffffffffffffffff168173ffffffffffffffffffffffffffffffffffffffff16146105f5578382826040517f64283d7b0000000000000000000000000000000000000000000000000000000081526004016105ec93929190612626565b60405180910390fd5b50505050565b600080600854905061060d8982611138565b6106178184611156565b6040518060a00160405280898152602001888152602001878152602001868152602001858152506009600083815260200190815260200160002060008201518160000190816106669190612809565b50602082015181600101908161067c9190612809565b5060408201518160020190816106929190612809565b5060608201518160030190816106a89190612809565b5060808201518160040155905050600860008154809291906106c99061290a565b919050555080915050979650505050505050565b6106f8838383604051806020016040528060008152506108b5565b505050565b600061070882610e3f565b9050919050565b60008073ffffffffffffffffffffffffffffffffffffffff168273ffffffffffffffffffffffffffffffffffffffff16036107825760006040517f89c62b640000000000000000000000000000000000000000000000000000000081526004016107799190611ff3565b60405180910390fd5b600360008373ffffffffffffffffffffffffffffffffffffffff1673ffffffffffffffffffffffffffffffffffffffff168152602001908152602001600020549050919050565b6107d16111b2565b6107db6000611239565b565b60085481565b6000600760009054906101000a900473ffffffffffffffffffffffffffffffffffffffff16905090565b60606001805461081c906125f5565b80601f0160208091040260200160405190810160405280929190818152602001828054610848906125f5565b80156108955780601f1061086a57610100808354040283529160200191610895565b820191906000526020600020905b81548152906001019060200180831161087857829003601f168201915b5050505050905090565b6108b16108aa610f04565b83836112ff565b5050565b6108c08484846104f9565b6108d46108cb610f04565b8585858561146e565b50505050565b60606108e582610e3f565b506000600660008481526020019081526020016000208054610906906125f5565b80601f0160208091040260200160405190810160405280929190818152602001828054610932906125f5565b801561097f5780601f106109545761010080835404028352916020019161097f565b820191906000526020600020905b81548152906001019060200180831161096257829003601f168201915b50505050509050600061099061161f565b905060008151036109a55781925050506109e8565b6000825111156109da5780826040516020016109c292919061298e565b604051602081830303815290604052925050506109e8565b6109e384611636565b925050505b919050565b6000600560008473ffffffffffffffffffffffffffffffffffffffff1673ffffffffffffffffffffffffffffffffffffffff16815260200190815260200160002060008373ffffffffffffffffffffffffffffffffffffffff1673ffffffffffffffffffffffffffffffffffffffff16815260200190815260200160002060009054906101000a900460ff16905092915050565b6009602052806000526040600020600091509050806000018054610aa4906125f5565b80601f0160208091040260200160405190810160405280929190818152602001828054610ad0906125f5565b8015610b1d5780601f10610af257610100808354040283529160200191610b1d565b820191906000526020600020905b815481529060010190602001808311610b0057829003601f168201915b505050505090806001018054610b32906125f5565b80601f0160208091040260200160405190810160405280929190818152602001828054610b5e906125f5565b8015610bab5780601f10610b8057610100808354040283529160200191610bab565b820191906000526020600020905b815481529060010190602001808311610b8e57829003601f168201915b505050505090806002018054610bc0906125f5565b80601f0160208091040260200160405190810160405280929190818152602001828054610bec906125f5565b8015610c395780601f10610c0e57610100808354040283529160200191610c39565b820191906000526020600020905b815481529060010190602001808311610c1c57829003601f168201915b505050505090806003018054610c4e906125f5565b80601f0160208091040260200160405190810160405280929190818152602001828054610c7a906125f5565b8015610cc75780601f10610c9c57610100808354040283529160200191610cc7565b820191906000526020600020905b815481529060010190602001808311610caa57829003601f168201915b5050505050908060040154905085565b610cdf6111b2565b600073ffffffffffffffffffffffffffffffffffffffff168173ffffffffffffffffffffffffffffffffffffffff1603610d515760006040517f1e4fbdf7000000000000000000000000000000000000000000000000000000008152600401610d489190611ff3565b60405180910390fd5b610d5a81611239565b50565b60007f80ac58cd000000000000000000000000000000000000000000000000000000007bffffffffffffffffffffffffffffffffffffffffffffffffffffffff1916827bffffffffffffffffffffffffffffffffffffffffffffffffffffffff19161480610e2857507f5b5e139f000000000000000000000000000000000000000000000000000000007bffffffffffffffffffffffffffffffffffffffffffffffffffffffff1916827bffffffffffffffffffffffffffffffffffffffffffffffffffffffff1916145b80610e385750610e378261169f565b5b9050919050565b600080610e4b83611709565b9050600073ffffffffffffffffffffffffffffffffffffffff168173ffffffffffffffffffffffffffffffffffffffff1603610ebe57826040517f7e273289000000000000000000000000000000000000000000000000000000008152600401610eb5919061233f565b60405180910390fd5b80915050919050565b60006004600083815260200190815260200160002060009054906101000a900473ffffffffffffffffffffffffffffffffffffffff169050919050565b600033905090565b610f198383836001611746565b505050565b600080610f2a84611709565b9050600073ffffffffffffffffffffffffffffffffffffffff168373ffffffffffffffffffffffffffffffffffffffff1614610f6c57610f6b81848661190b565b5b600073ffffffffffffffffffffffffffffffffffffffff168173ffffffffffffffffffffffffffffffffffffffff1614610ffd57610fae600085600080611746565b6001600360008373ffffffffffffffffffffffffffffffffffffffff1673ffffffffffffffffffffffffffffffffffffffff168152602001908152602001600020600082825403925050819055505b600073ffffffffffffffffffffffffffffffffffffffff168573ffffffffffffffffffffffffffffffffffffffff1614611080576001600360008773ffffffffffffffffffffffffffffffffffffffff1673ffffffffffffffffffffffffffffffffffffffff168152602001908152602001600020600082825401925050819055505b846002600086815260200190815260200160002060006101000a81548173ffffffffffffffffffffffffffffffffffffffff021916908373ffffffffffffffffffffffffffffffffffffffff160217905550838573ffffffffffffffffffffffffffffffffffffffff168273ffffffffffffffffffffffffffffffffffffffff167fddf252ad1be2c89b69c2b068fc378daa952ba7f163c4a11628f55a4df523b3ef60405160405180910390a4809150509392505050565b6111528282604051806020016040528060008152506119cf565b5050565b806006600084815260200190815260200160002090816111769190612809565b507ff8e1a15aba9398e019f0b49df1a4fde98ee17ae345cb5f6b5e2c27f5033e8ce7826040516111a6919061233f565b60405180910390a15050565b6111ba610f04565b73ffffffffffffffffffffffffffffffffffffffff166111d86107e3565b73ffffffffffffffffffffffffffffffffffffffff1614611237576111fb610f04565b6040517f118cdaa700000000000000000000000000000000000000000000000000000000815260040161122e9190611ff3565b60405180910390fd5b565b6000600760009054906101000a900473ffffffffffffffffffffffffffffffffffffffff16905081600760006101000a81548173ffffffffffffffffffffffffffffffffffffffff021916908373ffffffffffffffffffffffffffffffffffffffff1602179055508173ffffffffffffffffffffffffffffffffffffffff168173ffffffffffffffffffffffffffffffffffffffff167f8be0079c531659141344cd1fd0a4f28419497f9722a3daafe3b4186f6b6457e060405160405180910390a35050565b600073ffffffffffffffffffffffffffffffffffffffff168273ffffffffffffffffffffffffffffffffffffffff160361137057816040517f5b08ba180000000000000000000000000000000000000000000000000000000081526004016113679190611ff3565b60405180910390fd5b80600560008573ffffffffffffffffffffffffffffffffffffffff1673ffffffffffffffffffffffffffffffffffffffff16815260200190815260200160002060008473ffffffffffffffffffffffffffffffffffffffff1673ffffffffffffffffffffffffffffffffffffffff16815260200190815260200160002060006101000a81548160ff0219169083151502179055508173ffffffffffffffffffffffffffffffffffffffff168373ffffffffffffffffffffffffffffffffffffffff167f17307eab39ab6107e8899845ad3d59bd9653f200f220920489ca2b5937696c31836040516114619190611e82565b60405180910390a3505050565b60008373ffffffffffffffffffffffffffffffffffffffff163b1115611618578273ffffffffffffffffffffffffffffffffffffffff1663150b7a02868685856040518563ffffffff1660e01b81526004016114cd9493929190612a07565b6020604051808303816000875af192505050801561150957506040513d601f19601f820116820180604052508101906115069190612a68565b60015b61158d573d8060008114611539576040519150601f19603f3d011682016040523d82523d6000602084013e61153e565b606091505b50600081510361158557836040517f64a0ae9200000000000000000000000000000000000000000000000000000000815260040161157c9190611ff3565b60405180910390fd5b805181602001fd5b63150b7a0260e01b7bffffffffffffffffffffffffffffffffffffffffffffffffffffffff1916817bffffffffffffffffffffffffffffffffffffffffffffffffffffffff19161461161657836040517f64a0ae9200000000000000000000000000000000000000000000000000000000815260040161160d9190611ff3565b60405180910390fd5b505b5050505050565b606060405180602001604052806000815250905090565b606061164182610e3f565b50600061164c61161f565b9050600081511161166c5760405180602001604052806000815250611697565b80611676846119f3565b60405160200161168792919061298e565b6040516020818303038152906040525b915050919050565b60007f01ffc9a7000000000000000000000000000000000000000000000000000000007bffffffffffffffffffffffffffffffffffffffffffffffffffffffff1916827bffffffffffffffffffffffffffffffffffffffffffffffffffffffff1916149050919050565b60006002600083815260200190815260200160002060009054906101000a900473ffffffffffffffffffffffffffffffffffffffff169050919050565b808061177f5750600073ffffffffffffffffffffffffffffffffffffffff168273ffffffffffffffffffffffffffffffffffffffff1614155b156118b357600061178f84610e3f565b9050600073ffffffffffffffffffffffffffffffffffffffff168373ffffffffffffffffffffffffffffffffffffffff16141580156117fa57508273ffffffffffffffffffffffffffffffffffffffff168173ffffffffffffffffffffffffffffffffffffffff1614155b801561180d575061180b81846109ed565b155b1561184f57826040517fa9fbf51f0000000000000000000000000000000000000000000000000000000081526004016118469190611ff3565b60405180910390fd5b81156118b157838573ffffffffffffffffffffffffffffffffffffffff168273ffffffffffffffffffffffffffffffffffffffff167f8c5be1e5ebec7d5bd14f71427d1e84f3dd0314c0f7b2291e5b200ac8c7c3b92560405160405180910390a45b505b836004600085815260200190815260200160002060006101000a81548173ffffffffffffffffffffffffffffffffffffffff021916908373ffffffffffffffffffffffffffffffffffffffff16021790555050505050565b611916838383611ac1565b6119ca57600073ffffffffffffffffffffffffffffffffffffffff168373ffffffffffffffffffffffffffffffffffffffff160361198b57806040517f7e273289000000000000000000000000000000000000000000000000000000008152600401611982919061233f565b60405180910390fd5b81816040517f177e802f0000000000000000000000000000000000000000000000000000000081526004016119c1929190612a95565b60405180910390fd5b505050565b6119d98383611b82565b6119ee6119e4610f04565b600085858561146e565b505050565b606060006001611a0284611c7b565b01905060008167ffffffffffffffff811115611a2157611a206120d7565b5b6040519080825280601f01601f191660200182016040528015611a535781602001600182028036833780820191505090505b509050600082602001820190505b600115611ab6578080600190039150507f3031323334353637383961626364656600000000000000000000000000000000600a86061a8153600a8581611aaa57611aa9612abe565b5b04945060008503611a61575b819350505050919050565b60008073ffffffffffffffffffffffffffffffffffffffff168373ffffffffffffffffffffffffffffffffffffffff1614158015611b7957508273ffffffffffffffffffffffffffffffffffffffff168473ffffffffffffffffffffffffffffffffffffffff161480611b3a5750611b3984846109ed565b5b80611b7857508273ffffffffffffffffffffffffffffffffffffffff16611b6083610ec7565b73ffffffffffffffffffffffffffffffffffffffff16145b5b90509392505050565b600073ffffffffffffffffffffffffffffffffffffffff168273ffffffffffffffffffffffffffffffffffffffff1603611bf45760006040517f64a0ae92000000000000000000000000000000000000000000000000000000008152600401611beb9190611ff3565b60405180910390fd5b6000611c0283836000610f1e565b9050600073ffffffffffffffffffffffffffffffffffffffff168173ffffffffffffffffffffffffffffffffffffffff1614611c765760006040517f73c6ac6e000000000000000000000000000000000000000000000000000000008152600401611c6d9190611ff3565b60405180910390fd5b505050565b600080600090507a184f03e93ff9f4daa797ed6e38ed64bf6a1f0100000000000000008310611cd9577a184f03e93ff9f4daa797ed6e38ed64bf6a1f0100000000000000008381611ccf57611cce612abe565b5b0492506040810190505b6d04ee2d6d415b85acef81000000008310611d16576d04ee2d6d415b85acef81000000008381611d0c57611d0b612abe565b5b0492506020810190505b662386f26fc100008310611d4557662386f26fc100008381611d3b57611d3a612abe565b5b0492506010810190505b6305f5e1008310611d6e576305f5e1008381611d6457611d63612abe565b5b0492506008810190505b6127108310611d93576127108381611d8957611d88612abe565b5b0492506004810190505b60648310611db65760648381611dac57611dab612abe565b5b0492506002810190505b600a8310611dc5576001810190505b80915050919050565b6000604051905090565b600080fd5b600080fd5b60007fffffffff0000000000000000000000000000000000000000000000000000000082169050919050565b611e1781611de2565b8114611e2257600080fd5b50565b600081359050611e3481611e0e565b92915050565b600060208284031215611e5057611e4f611dd8565b5b6000611e5e84828501611e25565b91505092915050565b60008115159050919050565b611e7c81611e67565b82525050565b6000602082019050611e976000830184611e73565b92915050565b600081519050919050565b600082825260208201905092915050565b60005b83811015611ed7578082015181840152602081019050611ebc565b60008484015250505050565b6000601f19601f8301169050919050565b6000611eff82611e9d565b611f098185611ea8565b9350611f19818560208601611eb9565b611f2281611ee3565b840191505092915050565b60006020820190508181036000830152611f478184611ef4565b905092915050565b6000819050919050565b611f6281611f4f565b8114611f6d57600080fd5b50565b600081359050611f7f81611f59565b92915050565b600060208284031215611f9b57611f9a611dd8565b5b6000611fa984828501611f70565b91505092915050565b600073ffffffffffffffffffffffffffffffffffffffff82169050919050565b6000611fdd82611fb2565b9050919050565b611fed81611fd2565b82525050565b60006020820190506120086000830184611fe4565b92915050565b61201781611fd2565b811461202257600080fd5b50565b6000813590506120348161200e565b92915050565b6000806040838503121561205157612050611dd8565b5b600061205f85828601612025565b925050602061207085828601611f70565b9150509250929050565b60008060006060848603121561209357612092611dd8565b5b60006120a186828701612025565b93505060206120b286828701612025565b92505060406120c386828701611f70565b9150509250925092565b600080fd5b600080fd5b7f4e487b7100000000000000000000000000000000000000000000000000000000600052604160045260246000fd5b61210f82611ee3565b810181811067ffffffffffffffff8211171561212e5761212d6120d7565b5b80604052505050565b6000612141611dce565b905061214d8282612106565b919050565b600067ffffffffffffffff82111561216d5761216c6120d7565b5b61217682611ee3565b9050602081019050919050565b82818337600083830152505050565b60006121a56121a084612152565b612137565b9050828152602081018484840111156121c1576121c06120d2565b5b6121cc848285612183565b509392505050565b600082601f8301126121e9576121e86120cd565b5b81356121f9848260208601612192565b91505092915050565b600080600080600080600060e0888a03121561222157612220611dd8565b5b600061222f8a828b01612025565b975050602088013567ffffffffffffffff8111156122505761224f611ddd565b5b61225c8a828b016121d4565b965050604088013567ffffffffffffffff81111561227d5761227c611ddd565b5b6122898a828b016121d4565b955050606088013567ffffffffffffffff8111156122aa576122a9611ddd565b5b6122b68a828b016121d4565b945050608088013567ffffffffffffffff8111156122d7576122d6611ddd565b5b6122e38a828b016121d4565b93505060a06122f48a828b01611f70565b92505060c088013567ffffffffffffffff81111561231557612314611ddd565b5b6123218a828b016121d4565b91505092959891949750929550565b61233981611f4f565b82525050565b60006020820190506123546000830184612330565b92915050565b6000602082840312156123705761236f611dd8565b5b600061237e84828501612025565b91505092915050565b61239081611e67565b811461239b57600080fd5b50565b6000813590506123ad81612387565b92915050565b600080604083850312156123ca576123c9611dd8565b5b60006123d885828601612025565b92505060206123e98582860161239e565b9150509250929050565b600067ffffffffffffffff82111561240e5761240d6120d7565b5b61241782611ee3565b9050602081019050919050565b6000612437612432846123f3565b612137565b905082815260208101848484011115612453576124526120d2565b5b61245e848285612183565b509392505050565b600082601f83011261247b5761247a6120cd565b5b813561248b848260208601612424565b91505092915050565b600080600080608085870312156124ae576124ad611dd8565b5b60006124bc87828801612025565b94505060206124cd87828801612025565b93505060406124de87828801611f70565b925050606085013567ffffffffffffffff8111156124ff576124fe611ddd565b5b61250b87828801612466565b91505092959194509250565b6000806040838503121561252e5761252d611dd8565b5b600061253c85828601612025565b925050602061254d85828601612025565b9150509250929050565b600060a08201905081810360008301526125718188611ef4565b905081810360208301526125858187611ef4565b905081810360408301526125998186611ef4565b905081810360608301526125ad8185611ef4565b90506125bc6080830184612330565b9695505050505050565b7f4e487b7100000000000000000000000000000000000000000000000000000000600052602260045260246000fd5b6000600282049050600182168061260d57607f821691505b6020821081036126205761261f6125c6565b5b50919050565b600060608201905061263b6000830186611fe4565b6126486020830185612330565b6126556040830184611fe4565b949350505050565b60008190508160005260206000209050919050565b60006020601f8301049050919050565b600082821b905092915050565b6000600883026126bf7fffffffffffffffffffffffffffffffffffffffffffffffffffffffffffffffff82612682565b6126c98683612682565b95508019841693508086168417925050509392505050565b6000819050919050565b60006127066127016126fc84611f4f565b6126e1565b611f4f565b9050919050565b6000819050919050565b612720836126eb565b61273461272c8261270d565b84845461268f565b825550505050565b600090565b61274961273c565b612754818484612717565b505050565b5b818110156127785761276d600082612741565b60018101905061275a565b5050565b601f8211156127bd5761278e8161265d565b61279784612672565b810160208510156127a6578190505b6127ba6127b285612672565b830182612759565b50505b505050565b600082821c905092915050565b60006127e0600019846008026127c2565b1980831691505092915050565b60006127f983836127cf565b9150826002028217905092915050565b61281282611e9d565b67ffffffffffffffff81111561282b5761282a6120d7565b5b61283582546125f5565b61284082828561277c565b600060209050601f8311600181146128735760008415612861578287015190505b61286b85826127ed565b8655506128d3565b601f1984166128818661265d565b60005b828110156128a957848901518255600182019150602085019450602081019050612884565b868310156128c657848901516128c2601f8916826127cf565b8355505b6001600288020188555050505b505050505050565b7f4e487b7100000000000000000000000000000000000000000000000000000000600052601160045260246000fd5b600061291582611f4f565b91507fffffffffffffffffffffffffffffffffffffffffffffffffffffffffffffffff8203612947576129466128db565b5b600182019050919050565b600081905092915050565b600061296882611e9d565b6129728185612952565b9350612982818560208601611eb9565b80840191505092915050565b600061299a828561295d565b91506129a6828461295d565b91508190509392505050565b600081519050919050565b600082825260208201905092915050565b60006129d9826129b2565b6129e381856129bd565b93506129f3818560208601611eb9565b6129fc81611ee3565b840191505092915050565b6000608082019050612a1c6000830187611fe4565b612a296020830186611fe4565b612a366040830185612330565b8181036060830152612a4881846129ce565b905095945050505050565b600081519050612a6281611e0e565b92915050565b600060208284031215612a7e57612a7d611dd8565b5b6000612a8c84828501612a53565b91505092915050565b6000604082019050612aaa6000830185611fe4565b612ab76020830184612330565b9392505050565b7f4e487b7100000000000000000000000000000000000000000000000000000000600052601260045260246000fdfea26469706673582212201ca1049bff54888f72452dd78c91b9cf63c25117e6dfb2f3fc00685726690dee64736f6c63430008140033",
  "linkReferences": {},
  "deployedLinkReferences": {}
}